{
  "_format": "hh-sol-artifact-1",
  "contractName": "GLTrail",
  "sourceName": "contracts/GLTrail.sol",
  "abi": [
    {
      "inputs": [],
      "stateMutability": "nonpayable",
      "type": "constructor"
    },
    {
      "anonymous": false,
      "inputs": [
        {
          "indexed": true,
          "internalType": "address",
          "name": "_owner",
          "type": "address"
        },
        {
          "indexed": true,
          "internalType": "address",
          "name": "_operator",
          "type": "address"
        },
        {
          "indexed": false,
          "internalType": "bool",
          "name": "_approved",
          "type": "bool"
        }
      ],
      "name": "ApprovalForAll",
      "type": "event"
    },
    {
      "anonymous": false,
      "inputs": [
        {
          "indexed": false,
          "internalType": "address",
          "name": "caller",
          "type": "address"
        },
        {
          "indexed": false,
          "internalType": "string",
          "name": "name",
          "type": "string"
        }
      ],
      "name": "Init",
      "type": "event"
    },
    {
      "anonymous": false,
      "inputs": [
        {
          "indexed": false,
          "internalType": "address",
          "name": "minter",
          "type": "address"
        },
        {
          "indexed": false,
          "internalType": "uint256",
          "name": "tokenId",
          "type": "uint256"
        },
        {
          "indexed": false,
          "internalType": "string",
          "name": "tokenURI",
          "type": "string"
        },
        {
          "indexed": false,
          "internalType": "uint256",
          "name": "quantity",
          "type": "uint256"
        }
      ],
      "name": "Minted",
      "type": "event"
    },
    {
      "anonymous": false,
      "inputs": [
        {
          "indexed": true,
          "internalType": "address",
          "name": "previousOwner",
          "type": "address"
        },
        {
          "indexed": true,
          "internalType": "address",
          "name": "newOwner",
          "type": "address"
        }
      ],
      "name": "OwnershipTransferred",
      "type": "event"
    },
    {
      "anonymous": false,
      "inputs": [
        {
          "indexed": true,
          "internalType": "address",
          "name": "_operator",
          "type": "address"
        },
        {
          "indexed": true,
          "internalType": "address",
          "name": "_from",
          "type": "address"
        },
        {
          "indexed": true,
          "internalType": "address",
          "name": "_to",
          "type": "address"
        },
        {
          "indexed": false,
          "internalType": "uint256[]",
          "name": "_ids",
          "type": "uint256[]"
        },
        {
          "indexed": false,
          "internalType": "uint256[]",
          "name": "_values",
          "type": "uint256[]"
        }
      ],
      "name": "TransferBatch",
      "type": "event"
    },
    {
      "anonymous": false,
      "inputs": [
        {
          "indexed": true,
          "internalType": "address",
          "name": "_operator",
          "type": "address"
        },
        {
          "indexed": true,
          "internalType": "address",
          "name": "_from",
          "type": "address"
        },
        {
          "indexed": true,
          "internalType": "address",
          "name": "_to",
          "type": "address"
        },
        {
          "indexed": false,
          "internalType": "uint256",
          "name": "_id",
          "type": "uint256"
        },
        {
          "indexed": false,
          "internalType": "uint256",
          "name": "_value",
          "type": "uint256"
        }
      ],
      "name": "TransferSingle",
      "type": "event"
    },
    {
      "anonymous": false,
      "inputs": [
        {
          "indexed": false,
          "internalType": "string",
          "name": "_value",
          "type": "string"
        },
        {
          "indexed": true,
          "internalType": "uint256",
          "name": "_id",
          "type": "uint256"
        }
      ],
      "name": "URI",
      "type": "event"
    },
    {
      "inputs": [],
      "name": "_tokenIds",
      "outputs": [
        {
          "internalType": "uint256",
          "name": "_value",
          "type": "uint256"
        }
      ],
      "stateMutability": "view",
      "type": "function"
    },
    {
      "inputs": [
        {
          "internalType": "address",
          "name": "",
          "type": "address"
        },
        {
          "internalType": "uint256",
          "name": "",
          "type": "uint256"
        }
      ],
      "name": "balanceOf",
      "outputs": [
        {
          "internalType": "uint256",
          "name": "",
          "type": "uint256"
        }
      ],
      "stateMutability": "view",
      "type": "function"
    },
    {
      "inputs": [
        {
          "internalType": "address[]",
          "name": "accounts",
          "type": "address[]"
        },
        {
          "internalType": "uint256[]",
          "name": "ids",
          "type": "uint256[]"
        }
      ],
      "name": "balanceOfBatch",
      "outputs": [
        {
          "internalType": "uint256[]",
          "name": "",
          "type": "uint256[]"
        }
      ],
      "stateMutability": "view",
      "type": "function"
    },
    {
      "inputs": [
        {
          "internalType": "string",
          "name": "_name",
          "type": "string"
        }
      ],
      "name": "init",
      "outputs": [],
      "stateMutability": "nonpayable",
      "type": "function"
    },
    {
      "inputs": [
        {
          "internalType": "address",
          "name": "",
          "type": "address"
        },
        {
          "internalType": "address",
          "name": "",
          "type": "address"
        }
      ],
      "name": "isApprovedForAll",
      "outputs": [
        {
          "internalType": "bool",
          "name": "",
          "type": "bool"
        }
      ],
      "stateMutability": "view",
      "type": "function"
    },
    {
      "inputs": [
        {
          "internalType": "string",
          "name": "tokenURI",
          "type": "string"
        },
        {
          "internalType": "uint256",
          "name": "quantity",
          "type": "uint256"
        }
      ],
      "name": "mint",
      "outputs": [
        {
          "internalType": "uint256",
          "name": "",
          "type": "uint256"
        }
      ],
      "stateMutability": "nonpayable",
      "type": "function"
    },
    {
      "inputs": [],
      "name": "name",
      "outputs": [
        {
          "internalType": "string",
          "name": "",
          "type": "string"
        }
      ],
      "stateMutability": "view",
      "type": "function"
    },
    {
      "inputs": [],
      "name": "nextTokenIdToMint",
      "outputs": [
        {
          "internalType": "uint256",
          "name": "",
          "type": "uint256"
        }
      ],
      "stateMutability": "view",
      "type": "function"
    },
    {
      "inputs": [],
      "name": "owner",
      "outputs": [
        {
          "internalType": "address",
          "name": "",
          "type": "address"
        }
      ],
      "stateMutability": "view",
      "type": "function"
    },
    {
      "inputs": [],
      "name": "renounceOwnership",
      "outputs": [],
      "stateMutability": "nonpayable",
      "type": "function"
    },
    {
      "inputs": [
        {
          "internalType": "address",
          "name": "from",
          "type": "address"
        },
        {
          "internalType": "address",
          "name": "to",
          "type": "address"
        },
        {
          "internalType": "uint256[]",
          "name": "ids",
          "type": "uint256[]"
        },
        {
          "internalType": "uint256[]",
          "name": "amounts",
          "type": "uint256[]"
        },
        {
          "internalType": "bytes",
          "name": "data",
          "type": "bytes"
        }
      ],
      "name": "safeBatchTransferFrom",
      "outputs": [],
      "stateMutability": "nonpayable",
      "type": "function"
    },
    {
      "inputs": [
        {
          "internalType": "address",
          "name": "from",
          "type": "address"
        },
        {
          "internalType": "address",
          "name": "to",
          "type": "address"
        },
        {
          "internalType": "uint256",
          "name": "id",
          "type": "uint256"
        },
        {
          "internalType": "uint256",
          "name": "amount",
          "type": "uint256"
        },
        {
          "internalType": "bytes",
          "name": "data",
          "type": "bytes"
        }
      ],
      "name": "safeTransferFrom",
      "outputs": [],
      "stateMutability": "nonpayable",
      "type": "function"
    },
    {
      "inputs": [
        {
          "internalType": "address",
          "name": "operator",
          "type": "address"
        },
        {
          "internalType": "bool",
          "name": "approved",
          "type": "bool"
        }
      ],
      "name": "setApprovalForAll",
      "outputs": [],
      "stateMutability": "nonpayable",
      "type": "function"
    },
    {
      "inputs": [
        {
          "internalType": "bytes4",
          "name": "interfaceId",
          "type": "bytes4"
        }
      ],
      "name": "supportsInterface",
      "outputs": [
        {
          "internalType": "bool",
          "name": "",
          "type": "bool"
        }
      ],
      "stateMutability": "view",
      "type": "function"
    },
    {
      "inputs": [],
      "name": "symbol",
      "outputs": [
        {
          "internalType": "string",
          "name": "",
          "type": "string"
        }
      ],
      "stateMutability": "view",
      "type": "function"
    },
    {
      "inputs": [
        {
          "internalType": "address",
          "name": "newOwner",
          "type": "address"
        }
      ],
      "name": "transferOwnership",
      "outputs": [],
      "stateMutability": "nonpayable",
      "type": "function"
    },
    {
      "inputs": [
        {
          "internalType": "uint256",
          "name": "tokenId",
          "type": "uint256"
        }
      ],
      "name": "uri",
      "outputs": [
        {
          "internalType": "string",
          "name": "",
          "type": "string"
        }
      ],
      "stateMutability": "view",
      "type": "function"
    }
  ],
  "bytecode": "0x60806040523480156200001157600080fd5b5060408051602080820183526000808352835191820190935282815290916200003b838262000168565b5060016200004a828262000168565b50505062000067620000616200006d60201b60201c565b62000071565b62000234565b3390565b600580546001600160a01b038381166001600160a01b0319831681179093556040519116919082907f8be0079c531659141344cd1fd0a4f28419497f9722a3daafe3b4186f6b6457e090600090a35050565b634e487b7160e01b600052604160045260246000fd5b600181811c90821680620000ee57607f821691505b6020821081036200010f57634e487b7160e01b600052602260045260246000fd5b50919050565b601f8211156200016357600081815260208120601f850160051c810160208610156200013e5750805b601f850160051c820191505b818110156200015f578281556001016200014a565b5050505b505050565b81516001600160401b03811115620001845762000184620000c3565b6200019c81620001958454620000d9565b8462000115565b602080601f831160018114620001d45760008415620001bb5750858301515b600019600386901b1c1916600185901b1785556200015f565b600085815260208120601f198616915b828110156200020557888601518255948401946001909101908401620001e4565b5085821015620002245787850151600019600388901b60f8161c191681555b5050505050600190811b01905550565b611d9b80620002446000396000f3fe608060405234801561001057600080fd5b506004361061011a5760003560e01c8063715018a6116100b2578063aa46a40011610081578063f242432a11610066578063f242432a1461026e578063f2fde38b14610281578063f9fbdb9e1461029457600080fd5b8063aa46a40014610236578063e985e9c51461024057600080fd5b8063715018a6146101f85780638da5cb5b1461020057806395d89b411461021b578063a22cb4651461022357600080fd5b80630e89341c116100ee5780630e89341c146101a85780632eb2c2d6146101bb5780633b1475a7146101d05780634e1273f4146101d857600080fd5b8062fdd58e1461011f57806301ffc9a71461015d578063056b01ce1461018057806306fdde0314610193575b600080fd5b61014a61012d366004611349565b600260209081526000928352604080842090915290825290205481565b6040519081526020015b60405180910390f35b61017061016b366004611389565b6102a7565b6040519015158152602001610154565b61014a61018e3660046113f6565b610344565b61019b610587565b6040516101549190611488565b61019b6101b636600461149b565b610615565b6101ce6101c9366004611600565b6106b7565b005b61014a610751565b6101eb6101e63660046116aa565b610768565b60405161015491906117b0565b6101ce6108ad565b6005546040516001600160a01b039091168152602001610154565b61019b6108c1565b6101ce6102313660046117c3565b6108ce565b60065461014a9081565b61017061024e3660046117ff565b600360209081526000928352604080842090915290825290205460ff1681565b6101ce61027c366004611832565b610994565b6101ce61028f366004611897565b610a27565b6101ce6102a23660046118b2565b610ab7565b60007f01ffc9a7000000000000000000000000000000000000000000000000000000006001600160e01b03198316148061030a57507fd9b67a26000000000000000000000000000000000000000000000000000000006001600160e01b03198316145b8061033e57507f0e89341c000000000000000000000000000000000000000000000000000000006001600160e01b03198316145b92915050565b600061034e610b0c565b600082116103c95760405162461bcd60e51b815260206004820152602760248201527f4d616b65207375726520746865207175616e746974792068696768657220746860448201527f616e207a65726f0000000000000000000000000000000000000000000000000060648201526084015b60405180910390fd5b60056103d460065490565b6103df90600161190a565b11156104535760405162461bcd60e51b815260206004820152603e60248201527f4e6f7420616c6c6f77656420746f206d696e74206d6f7265207468616e20352060448201527f646966666572656e747320747261696c20627920636f6c6c656374696f6e000060648201526084016103c0565b60148211156104ca5760405162461bcd60e51b815260206004820152603660248201527f596f752063616e6e6f74206d696e74206d6f7265207468616e2032302065786560448201527f6d706c6172696573206f6620796f757220747261696c0000000000000000000060648201526084016103c0565b6104d8600680546001019055565b60006104e360065490565b905061050033828560405180602001604052806000815250610b66565b6105408186868080601f016020809104026020016040519081016040528093929190818152602001838380828437600092019190915250610c5892505050565b7ff5c82eda717141c5f0cfeb894e7b7819c158a337b62ec13d412aecad30b0ad9e3382878787604051610577959493929190611946565b60405180910390a1949350505050565b6000805461059490611981565b80601f01602080910402602001604051908101604052809291908181526020018280546105c090611981565b801561060d5780601f106105e25761010080835404028352916020019161060d565b820191906000526020600020905b8154815290600101906020018083116105f057829003601f168201915b505050505081565b600081815260046020526040902080546060919061063290611981565b80601f016020809104026020016040519081016040528092919081815260200182805461065e90611981565b80156106ab5780601f10610680576101008083540402835291602001916106ab565b820191906000526020600020905b81548152906001019060200180831161068e57829003601f168201915b50505050509050919050565b6001600160a01b0385163314806106f157506001600160a01b038516600090815260036020908152604080832033845290915290205460ff165b61073d5760405162461bcd60e51b815260206004820152601260248201527f214f574e45525f4f525f415050524f564544000000000000000000000000000060448201526064016103c0565b61074a8585858585610c75565b5050505050565b60008061075d60065490565b61033e90600161190a565b606081518351146107bb5760405162461bcd60e51b815260206004820152600f60248201527f4c454e4754485f4d49534d41544348000000000000000000000000000000000060448201526064016103c0565b6000835167ffffffffffffffff8111156107d7576107d76114b4565b604051908082528060200260200182016040528015610800578160200160208202803683370190505b50905060005b84518110156108a55760026000868381518110610825576108256119bb565b60200260200101516001600160a01b03166001600160a01b031681526020019081526020016000206000858381518110610861576108616119bb565b602002602001015181526020019081526020016000205482828151811061088a5761088a6119bb565b602090810291909101015261089e816119d1565b9050610806565b509392505050565b6108b5610b0c565b6108bf6000610ea1565b565b6001805461059490611981565b336001600160a01b03831681036109275760405162461bcd60e51b815260206004820152600e60248201527f415050524f56494e475f53454c4600000000000000000000000000000000000060448201526064016103c0565b6001600160a01b03818116600081815260036020908152604080832094881680845294825291829020805460ff191687151590811790915591519182527f17307eab39ab6107e8899845ad3d59bd9653f200f220920489ca2b5937696c31910160405180910390a3505050565b6001600160a01b0385163314806109ce57506001600160a01b038516600090815260036020908152604080832033845290915290205460ff165b610a1a5760405162461bcd60e51b815260206004820152601260248201527f214f574e45525f4f525f415050524f564544000000000000000000000000000060448201526064016103c0565b61074a8585858585610f0b565b610a2f610b0c565b6001600160a01b038116610aab5760405162461bcd60e51b815260206004820152602660248201527f4f776e61626c653a206e6577206f776e657220697320746865207a65726f206160448201527f646472657373000000000000000000000000000000000000000000000000000060648201526084016103c0565b610ab481610ea1565b50565b610abf610b0c565b6000610acc828483611a30565b507f22bdf3f7052c91671b269d7a25c464bf6ae324cb972d029bf683a33f6349cbed338383604051610b0093929190611af0565b60405180910390a15050565b6005546001600160a01b031633146108bf5760405162461bcd60e51b815260206004820181905260248201527f4f776e61626c653a2063616c6c6572206973206e6f7420746865206f776e657260448201526064016103c0565b6001600160a01b038416610bab5760405162461bcd60e51b815260206004820152600c60248201526b2a27afad22a927afa0a2222960a11b60448201526064016103c0565b33610bc581600087610bbc88611089565b61074a88611089565b6001600160a01b038516600090815260026020908152604080832087845290915281208054859290610bf890849061190a565b909155505060408051858152602081018590526001600160a01b0380881692600092918516917fc3d58168c5ae7397731d063d5bbf3d657854427343f4c083240f7aacaa2d0f62910160405180910390a461074a816000878787876110d4565b6000828152600460205260409020610c708282611b1c565b505050565b8151835114610cc65760405162461bcd60e51b815260206004820152600f60248201527f4c454e4754485f4d49534d41544348000000000000000000000000000000000060448201526064016103c0565b6001600160a01b038416610d0b5760405162461bcd60e51b815260206004820152600c60248201526b2a27afad22a927afa0a2222960a11b60448201526064016103c0565b3360005b8451811015610e33576000858281518110610d2c57610d2c6119bb565b602002602001015190506000858381518110610d4a57610d4a6119bb565b6020908102919091018101516001600160a01b038b166000908152600283526040808220868352909352919091205490915081811015610dcc5760405162461bcd60e51b815260206004820152601060248201527f494e53554646494349454e545f42414c0000000000000000000000000000000060448201526064016103c0565b6001600160a01b03808b16600090815260026020818152604080842088855282528084208787039055938d16835290815282822086835290529081208054849290610e1890849061190a565b9250508190555050505080610e2c906119d1565b9050610d0f565b50846001600160a01b0316866001600160a01b0316826001600160a01b03167f4a39dc06d4c0dbc64b70af90fd698a233a518aa5d07e595d983b8c0526c8f7fb8787604051610e83929190611bdc565b60405180910390a4610e99818787878787611242565b505050505050565b600580546001600160a01b038381167fffffffffffffffffffffffff0000000000000000000000000000000000000000831681179093556040519116919082907f8be0079c531659141344cd1fd0a4f28419497f9722a3daafe3b4186f6b6457e090600090a35050565b6001600160a01b038416610f505760405162461bcd60e51b815260206004820152600c60248201526b2a27afad22a927afa0a2222960a11b60448201526064016103c0565b33610f60818787610bbc88611089565b6001600160a01b038616600090815260026020908152604080832087845290915290205483811015610fd45760405162461bcd60e51b815260206004820152601060248201527f494e53554646494349454e545f42414c0000000000000000000000000000000060448201526064016103c0565b6001600160a01b0380881660009081526002602081815260408084208a855282528084208987039055938a1683529081528282208883529052908120805486929061102090849061190a565b909155505060408051868152602081018690526001600160a01b03808916928a821692918616917fc3d58168c5ae7397731d063d5bbf3d657854427343f4c083240f7aacaa2d0f62910160405180910390a46110808288888888886110d4565b50505050505050565b604080516001808252818301909252606091600091906020808301908036833701905050905082816000815181106110c3576110c36119bb565b602090810291909101015292915050565b6001600160a01b0384163b15610e995760405163f23a6e6160e01b81526001600160a01b0385169063f23a6e61906111189089908990889088908890600401611c01565b6020604051808303816000875af1925050508015611153575060408051601f3d908101601f1916820190925261115091810190611c44565b60015b6111e25761115f611c61565b806308c379a0036111985750611173611c7d565b8061117e575061119a565b8060405162461bcd60e51b81526004016103c09190611488565b505b60405162461bcd60e51b815260206004820152601060248201527f214552433131353552454345495645520000000000000000000000000000000060448201526064016103c0565b6001600160e01b0319811663f23a6e6160e01b146110805760405162461bcd60e51b815260206004820152600f60248201527f544f4b454e535f52454a4543544544000000000000000000000000000000000060448201526064016103c0565b6001600160a01b0384163b15610e995760405163bc197c8160e01b81526001600160a01b0385169063bc197c81906112869089908990889088908890600401611d07565b6020604051808303816000875af19250505080156112c1575060408051601f3d908101601f191682019092526112be91810190611c44565b60015b6112cd5761115f611c61565b6001600160e01b0319811663bc197c8160e01b146110805760405162461bcd60e51b815260206004820152600f60248201527f544f4b454e535f52454a4543544544000000000000000000000000000000000060448201526064016103c0565b80356001600160a01b038116811461134457600080fd5b919050565b6000806040838503121561135c57600080fd5b6113658361132d565b946020939093013593505050565b6001600160e01b031981168114610ab457600080fd5b60006020828403121561139b57600080fd5b81356113a681611373565b9392505050565b60008083601f8401126113bf57600080fd5b50813567ffffffffffffffff8111156113d757600080fd5b6020830191508360208285010111156113ef57600080fd5b9250929050565b60008060006040848603121561140b57600080fd5b833567ffffffffffffffff81111561142257600080fd5b61142e868287016113ad565b909790965060209590950135949350505050565b6000815180845260005b818110156114685760208185018101518683018201520161144c565b506000602082860101526020601f19601f83011685010191505092915050565b6020815260006113a66020830184611442565b6000602082840312156114ad57600080fd5b5035919050565b634e487b7160e01b600052604160045260246000fd5b601f8201601f1916810167ffffffffffffffff811182821017156114f0576114f06114b4565b6040525050565b600067ffffffffffffffff821115611511576115116114b4565b5060051b60200190565b600082601f83011261152c57600080fd5b81356020611539826114f7565b60405161154682826114ca565b83815260059390931b850182019282810191508684111561156657600080fd5b8286015b84811015611581578035835291830191830161156a565b509695505050505050565b600082601f83011261159d57600080fd5b813567ffffffffffffffff8111156115b7576115b76114b4565b6040516115ce601f8301601f1916602001826114ca565b8181528460208386010111156115e357600080fd5b816020850160208301376000918101602001919091529392505050565b600080600080600060a0868803121561161857600080fd5b6116218661132d565b945061162f6020870161132d565b9350604086013567ffffffffffffffff8082111561164c57600080fd5b61165889838a0161151b565b9450606088013591508082111561166e57600080fd5b61167a89838a0161151b565b9350608088013591508082111561169057600080fd5b5061169d8882890161158c565b9150509295509295909350565b600080604083850312156116bd57600080fd5b823567ffffffffffffffff808211156116d557600080fd5b818501915085601f8301126116e957600080fd5b813560206116f6826114f7565b60405161170382826114ca565b83815260059390931b850182019282810191508984111561172357600080fd5b948201945b83861015611748576117398661132d565b82529482019490820190611728565b9650508601359250508082111561175e57600080fd5b5061176b8582860161151b565b9150509250929050565b600081518084526020808501945080840160005b838110156117a557815187529582019590820190600101611789565b509495945050505050565b6020815260006113a66020830184611775565b600080604083850312156117d657600080fd5b6117df8361132d565b9150602083013580151581146117f457600080fd5b809150509250929050565b6000806040838503121561181257600080fd5b61181b8361132d565b91506118296020840161132d565b90509250929050565b600080600080600060a0868803121561184a57600080fd5b6118538661132d565b94506118616020870161132d565b93506040860135925060608601359150608086013567ffffffffffffffff81111561188b57600080fd5b61169d8882890161158c565b6000602082840312156118a957600080fd5b6113a68261132d565b600080602083850312156118c557600080fd5b823567ffffffffffffffff8111156118dc57600080fd5b6118e8858286016113ad565b90969095509350505050565b634e487b7160e01b600052601160045260246000fd5b8082018082111561033e5761033e6118f4565b81835281816020850137506000828201602090810191909152601f909101601f19169091010190565b6001600160a01b038616815284602082015260806040820152600061196f60808301858761191d565b90508260608301529695505050505050565b600181811c9082168061199557607f821691505b6020821081036119b557634e487b7160e01b600052602260045260246000fd5b50919050565b634e487b7160e01b600052603260045260246000fd5b6000600182016119e3576119e36118f4565b5060010190565b601f821115610c7057600081815260208120601f850160051c81016020861015611a115750805b601f850160051c820191505b81811015610e9957828155600101611a1d565b67ffffffffffffffff831115611a4857611a486114b4565b611a5c83611a568354611981565b836119ea565b6000601f841160018114611a905760008515611a785750838201355b600019600387901b1c1916600186901b17835561074a565b600083815260209020601f19861690835b82811015611ac15786850135825560209485019460019092019101611aa1565b5086821015611ade5760001960f88860031b161c19848701351681555b505060018560011b0183555050505050565b6001600160a01b0384168152604060208201526000611b1360408301848661191d565b95945050505050565b815167ffffffffffffffff811115611b3657611b366114b4565b611b4a81611b448454611981565b846119ea565b602080601f831160018114611b7f5760008415611b675750858301515b600019600386901b1c1916600185901b178555610e99565b600085815260208120601f198616915b82811015611bae57888601518255948401946001909101908401611b8f565b5085821015611bcc5787850151600019600388901b60f8161c191681555b5050505050600190811b01905550565b604081526000611bef6040830185611775565b8281036020840152611b138185611775565b60006001600160a01b03808816835280871660208401525084604083015283606083015260a06080830152611c3960a0830184611442565b979650505050505050565b600060208284031215611c5657600080fd5b81516113a681611373565b600060033d1115611c7a5760046000803e5060005160e01c5b90565b600060443d1015611c8b5790565b6040516003193d81016004833e81513d67ffffffffffffffff8160248401118184111715611cbb57505050505090565b8285019150815181811115611cd35750505050505090565b843d8701016020828501011115611ced5750505050505090565b611cfc602082860101876114ca565b509095945050505050565b60006001600160a01b03808816835280871660208401525060a06040830152611d3360a0830186611775565b8281036060840152611d458186611775565b90508281036080840152611d598185611442565b9897505050505050505056fea2646970667358221220e6de6dfb439850a726eb5354b0df1cfd4a73a549d43f53cc1f64b518286b58be64736f6c63430008110033",
  "linkReferences": {},
  "deployedLinkReferences": {}
}